:04000000BFEF7FF0DF
:10FF7200456E9EA8FED745C0ADFF120000EE60F0B0
:10FF8200440EEE6AE806FDE100EE01F0440EEE6A70
:10FF9200E806FDE10001CEEF7FF0700ED36E9B8C80
:10FFA200A20EAC6E980EAB6E400EA76E670EAF6ED1
:10FFB200A20EBA6E980EA66E400EB96E670E7B6EDA
:10FFC200480EB9EC7FF0650EB9EC7FF06C0EB9EC1F
:10FFD2007FF06C0EB9EC7FF06F0EB9EC7FF00A0E79
:10FFE200B9EC7FF0290E476E960E466E7F0EE82E14
:0EFFF200FED7462EFCD7472EFAD700F0E1D7F7
:020000040020DA
:08000000FFFFFFFFFFFFFFFF00
:020000040030CA
:0E0000001D18797CFF8991FF0FC00FE00F40A3
:00000001FF
